{
  "contractName": "Crowdfunding",
  "abi": [
    {
      "inputs": [
        {
          "internalType": "string",
          "name": "_title",
          "type": "string"
        },
        {
          "internalType": "uint256",
          "name": "_goal",
          "type": "uint256"
        }
      ],
      "name": "createCampaign",
      "outputs": [],
      "stateMutability": "nonpayable",
      "type": "function"
    },
    {
      "inputs": [
        {
          "internalType": "uint256",
          "name": "_campaignIndex",
          "type": "uint256"
        }
      ],
      "name": "contribute",
      "outputs": [],
      "stateMutability": "payable",
      "type": "function",
      "payable": true
    },
    {
      "inputs": [
        {
          "internalType": "uint256",
          "name": "_campaignIndex",
          "type": "uint256"
        }
      ],
      "name": "withdraw",
      "outputs": [],
      "stateMutability": "nonpayable",
      "type": "function"
    }
  ],
  "bytecode": "0x608060405234801561001057600080fd5b50610b7f806100206000396000f3fe6080604052600436106100345760003560e01c80632e1a7d4d14610039578063c1cbbca714610062578063f102a67c1461007e575b600080fd5b34801561004557600080fd5b50610060600480360381019061005b91906104c9565b6100a7565b005b61007c600480360381019061007791906104c9565b61024d565b005b34801561008a57600080fd5b506100a560048036038101906100a0919061063c565b6103c9565b005b6000600160008381526020019081526020016000209050600015158160050160009054906101000a900460ff16151514610116576040517f08c379a000000000000000000000000000000000000000000000000000000000815260040161010d906106f5565b60405180910390fd5b60008160040160003373ffffffffffffffffffffffffffffffffffffffff1673ffffffffffffffffffffffffffffffffffffffff1681526020019081526020016000205490506000811161019f576040517f08c379a000000000000000000000000000000000000000000000000000000000815260040161019690610761565b60405180910390fd5b60008260040160003373ffffffffffffffffffffffffffffffffffffffff1673ffffffffffffffffffffffffffffffffffffffff16815260200190815260200160002081905550808260030160008282546101fa91906107b0565b925050819055503373ffffffffffffffffffffffffffffffffffffffff166108fc829081150290604051600060405180830381858888f19350505050158015610247573d6000803e3d6000fd5b50505050565b60006001600083815260200190815260200160002090508060050160009054906101000a900460ff16156102b6576040517f08c379a00000000000000000000000000000000000000000000000000000000081526004016102ad906106f5565b60405180910390fd5b348160040160003373ffffffffffffffffffffffffffffffffffffffff1673ffffffffffffffffffffffffffffffffffffffff168152602001908152602001600020600082825461030791906107e4565b925050819055503481600301600082825461032291906107e4565b9250508190555080600201548160030154106103c55760018160050160006101000a81548160ff0219169083151502179055508060000160009054906101000a900473ffffffffffffffffffffffffffffffffffffffff1673ffffffffffffffffffffffffffffffffffffffff166108fc82600301549081150290604051600060405180830381858888f193505050501580156103c3573d6000803e3d6000fd5b505b5050565b6000600160008060008154809291906103e190610818565b9190505581526020019081526020016000209050338160000160006101000a81548173ffffffffffffffffffffffffffffffffffffffff021916908373ffffffffffffffffffffffffffffffffffffffff160217905550828160010190816104499190610a77565b508181600201819055506000816003018190555060008160050160006101000a81548160ff021916908315150217905550505050565b6000604051905090565b600080fd5b600080fd5b6000819050919050565b6104a681610493565b81146104b157600080fd5b50565b6000813590506104c38161049d565b92915050565b6000602082840312156104df576104de610489565b5b60006104ed848285016104b4565b91505092915050565b600080fd5b600080fd5b6000601f19601f8301169050919050565b7f4e487b7100000000000000000000000000000000000000000000000000000000600052604160045260246000fd5b61054982610500565b810181811067ffffffffffffffff8211171561056857610567610511565b5b80604052505050565b600061057b61047f565b90506105878282610540565b919050565b600067ffffffffffffffff8211156105a7576105a6610511565b5b6105b082610500565b9050602081019050919050565b82818337600083830152505050565b60006105df6105da8461058c565b610571565b9050828152602081018484840111156105fb576105fa6104fb565b5b6106068482856105bd565b509392505050565b600082601f830112610623576106226104f6565b5b81356106338482602086016105cc565b91505092915050565b6000806040838503121561065357610652610489565b5b600083013567ffffffffffffffff8111156106715761067061048e565b5b61067d8582860161060e565b925050602061068e858286016104b4565b9150509250929050565b600082825260208201905092915050565b7f43616d706169676e20616c726561647920636f6d706c6574652e000000000000600082015250565b60006106df601a83610698565b91506106ea826106a9565b602082019050919050565b6000602082019050818103600083015261070e816106d2565b9050919050565b7f4e6f20636f6e747269627574696f6e7320666f756e642e000000000000000000600082015250565b600061074b601783610698565b915061075682610715565b602082019050919050565b6000602082019050818103600083015261077a8161073e565b9050919050565b7f4e487b7100000000000000000000000000000000000000000000000000000000600052601160045260246000fd5b60006107bb82610493565b91506107c683610493565b92508282039050818111156107de576107dd610781565b5b92915050565b60006107ef82610493565b91506107fa83610493565b925082820190508082111561081257610811610781565b5b92915050565b600061082382610493565b91507fffffffffffffffffffffffffffffffffffffffffffffffffffffffffffffffff820361085557610854610781565b5b600182019050919050565b600081519050919050565b7f4e487b7100000000000000000000000000000000000000000000000000000000600052602260045260246000fd5b600060028204905060018216806108b257607f821691505b6020821081036108c5576108c461086b565b5b50919050565b60008190508160005260206000209050919050565b60006020601f8301049050919050565b600082821b905092915050565b60006008830261092d7fffffffffffffffffffffffffffffffffffffffffffffffffffffffffffffffff826108f0565b61093786836108f0565b95508019841693508086168417925050509392505050565b6000819050919050565b600061097461096f61096a84610493565b61094f565b610493565b9050919050565b6000819050919050565b61098e83610959565b6109a261099a8261097b565b8484546108fd565b825550505050565b600090565b6109b76109aa565b6109c2818484610985565b505050565b5b818110156109e6576109db6000826109af565b6001810190506109c8565b5050565b601f821115610a2b576109fc816108cb565b610a05846108e0565b81016020851015610a14578190505b610a28610a20856108e0565b8301826109c7565b50505b505050565b600082821c905092915050565b6000610a4e60001984600802610a30565b1980831691505092915050565b6000610a678383610a3d565b9150826002028217905092915050565b610a8082610860565b67ffffffffffffffff811115610a9957610a98610511565b5b610aa3825461089a565b610aae8282856109ea565b600060209050601f831160018114610ae15760008415610acf578287015190505b610ad98582610a5b565b865550610b41565b601f198416610aef866108cb565b60005b82811015610b1757848901518255600182019150602085019450602081019050610af2565b86831015610b345784890151610b30601f891682610a3d565b8355505b6001600288020188555050505b50505050505056fea264697066735822122042961fa7156979e7c8f4b0bf7e2192fddaa247680b8b0e89067eab2fc3d7345564736f6c63430008110033",
  "immutableReferences": {},
  "source": "// SPDX-License-Identifier: MIT\r\npragma solidity ^0.8.0;\r\n\r\ncontract Crowdfunding {\r\n    struct Campaign {\r\n        address payable creator;\r\n        string title;\r\n        uint goal;\r\n        uint raised;\r\n        mapping(address => uint) contributions;\r\n        bool complete;\r\n    }\r\n    \r\n    uint numCampaigns;\r\n    mapping (uint => Campaign) campaigns;\r\n    \r\n    function createCampaign(string memory _title, uint _goal) public {\r\n        Campaign storage c = campaigns[numCampaigns++];\r\n        c.creator = payable(msg.sender);\r\n        c.title = _title;\r\n        c.goal = _goal;\r\n        c.raised = 0 ;\r\n        c.complete = false;\r\n        }\r\n    \r\n    function contribute(uint _campaignIndex) public payable {\r\n        Campaign storage campaign = campaigns[_campaignIndex];\r\n        require(!campaign.complete, \"Campaign already complete.\");\r\n        campaign.contributions[msg.sender] += msg.value;\r\n        campaign.raised += msg.value;\r\n        if (campaign.raised >= campaign.goal) {\r\n            campaign.complete = true;\r\n            campaign.creator.transfer(campaign.raised);\r\n        }\r\n    }\r\n    \r\n    function withdraw(uint _campaignIndex) public {\r\n        Campaign storage campaign = campaigns[_campaignIndex];\r\n        require(campaign.complete == false, \"Campaign already complete.\");\r\n        uint amount = campaign.contributions[msg.sender];\r\n        require(amount > 0, \"No contributions found.\");\r\n        campaign.contributions[msg.sender] = 0;\r\n        campaign.raised -= amount;\r\n        payable(msg.sender).transfer(amount);\r\n    }\r\n}",
  "sourcePath": "C:\\Users\\roile\\OneDrive - Azrieli - Jerusalem College of Engineering\\\\Git Codes\\crowdfunding\\contracts\\crowdfunding.sol",
  "compiler": {
    "name": "solc",
    "version": "0.8.17+commit.8df45f5f.Emscripten.clang"
  },
  "schemaVersion": "3.4.11",
  "updatedAt": "2023-02-22T10:46:33.028Z",
  "networkType": "ethereum",
  "devdoc": {
    "kind": "dev",
    "methods": {},
    "version": 1
  },
  "userdoc": {
    "kind": "user",
    "methods": {},
    "version": 1
  }
}