{
  "contractName": "Crowdfunding",
  "abi": [
    {
      "inputs": [
        {
          "internalType": "uint256",
          "name": "",
          "type": "uint256"
        }
      ],
      "name": "campaigns",
      "outputs": [
        {
          "internalType": "address payable",
          "name": "creator",
          "type": "address"
        },
        {
          "internalType": "string",
          "name": "title",
          "type": "string"
        },
        {
          "internalType": "string",
          "name": "description",
          "type": "string"
        },
        {
          "internalType": "uint256",
          "name": "goal",
          "type": "uint256"
        },
        {
          "internalType": "string",
          "name": "image",
          "type": "string"
        },
        {
          "internalType": "uint256",
          "name": "raised",
          "type": "uint256"
        },
        {
          "internalType": "bool",
          "name": "complete",
          "type": "bool"
        }
      ],
      "stateMutability": "view",
      "type": "function",
      "constant": true
    },
    {
      "inputs": [],
      "name": "numCampaigns",
      "outputs": [
        {
          "internalType": "uint256",
          "name": "",
          "type": "uint256"
        }
      ],
      "stateMutability": "view",
      "type": "function",
      "constant": true
    },
    {
      "inputs": [
        {
          "internalType": "string",
          "name": "_title",
          "type": "string"
        },
        {
          "internalType": "string",
          "name": "_description",
          "type": "string"
        },
        {
          "internalType": "uint256",
          "name": "_goal",
          "type": "uint256"
        },
        {
          "internalType": "string",
          "name": "_image",
          "type": "string"
        }
      ],
      "name": "createCampaign",
      "outputs": [],
      "stateMutability": "nonpayable",
      "type": "function"
    },
    {
      "inputs": [
        {
          "internalType": "uint256",
          "name": "_campaignIndex",
          "type": "uint256"
        }
      ],
      "name": "contribute",
      "outputs": [],
      "stateMutability": "payable",
      "type": "function",
      "payable": true
    },
    {
      "inputs": [
        {
          "internalType": "uint256",
          "name": "_campaignIndex",
          "type": "uint256"
        }
      ],
      "name": "withdraw",
      "outputs": [],
      "stateMutability": "nonpayable",
      "type": "function"
    }
  ],
  "bytecode": "0x608060405234801561001057600080fd5b50611005806100206000396000f3fe60806040526004361061004a5760003560e01c8063141961bc1461004f5780632c0f7b6f146100925780632e1a7d4d146100bd57806336d4ae71146100e6578063c1cbbca71461010f575b600080fd5b34801561005b57600080fd5b5061007660048036038101906100719190610783565b61012b565b60405161008997969594939291906108ab565b60405180910390f35b34801561009e57600080fd5b506100a7610332565b6040516100b4919061092f565b60405180910390f35b3480156100c957600080fd5b506100e460048036038101906100df9190610783565b610338565b005b3480156100f257600080fd5b5061010d60048036038101906101089190610a7f565b6104de565b005b61012960048036038101906101249190610783565b6105bd565b005b60016020528060005260406000206000915090508060000160009054906101000a900473ffffffffffffffffffffffffffffffffffffffff169080600101805461017490610b69565b80601f01602080910402602001604051908101604052809291908181526020018280546101a090610b69565b80156101ed5780601f106101c2576101008083540402835291602001916101ed565b820191906000526020600020905b8154815290600101906020018083116101d057829003601f168201915b50505050509080600201805461020290610b69565b80601f016020809104026020016040519081016040528092919081815260200182805461022e90610b69565b801561027b5780601f106102505761010080835404028352916020019161027b565b820191906000526020600020905b81548152906001019060200180831161025e57829003601f168201915b50505050509080600301549080600401805461029690610b69565b80601f01602080910402602001604051908101604052809291908181526020018280546102c290610b69565b801561030f5780601f106102e45761010080835404028352916020019161030f565b820191906000526020600020905b8154815290600101906020018083116102f257829003601f168201915b5050505050908060050154908060070160009054906101000a900460ff16905087565b60005481565b6000600160008381526020019081526020016000209050600015158160070160009054906101000a900460ff161515146103a7576040517f08c379a000000000000000000000000000000000000000000000000000000000815260040161039e90610be6565b60405180910390fd5b60008160060160003373ffffffffffffffffffffffffffffffffffffffff1673ffffffffffffffffffffffffffffffffffffffff16815260200190815260200160002054905060008111610430576040517f08c379a000000000000000000000000000000000000000000000000000000000815260040161042790610c52565b60405180910390fd5b60008260060160003373ffffffffffffffffffffffffffffffffffffffff1673ffffffffffffffffffffffffffffffffffffffff168152602001908152602001600020819055508082600501600082825461048b9190610ca1565b925050819055503373ffffffffffffffffffffffffffffffffffffffff166108fc829081150290604051600060405180830381858888f193505050501580156104d8573d6000803e3d6000fd5b50505050565b600060016000805481526020019081526020016000209050338160000160006101000a81548173ffffffffffffffffffffffffffffffffffffffff021916908373ffffffffffffffffffffffffffffffffffffffff1602179055508481600101908161054a9190610e81565b508381600201908161055c9190610e81565b50828160030181905550818160040190816105779190610e81565b506000816005018190555060008160070160006101000a81548160ff0219169083151502179055506000808154809291906105b190610f53565b91905055505050505050565b60006001600083815260200190815260200160002090508060070160009054906101000a900460ff1615610626576040517f08c379a000000000000000000000000000000000000000000000000000000000815260040161061d90610be6565b60405180910390fd5b348160060160003373ffffffffffffffffffffffffffffffffffffffff1673ffffffffffffffffffffffffffffffffffffffff16815260200190815260200160002060008282546106779190610f9b565b92505081905550348160050160008282546106929190610f9b565b9250508190555080600301548160050154106107355760018160070160006101000a81548160ff0219169083151502179055508060000160009054906101000a900473ffffffffffffffffffffffffffffffffffffffff1673ffffffffffffffffffffffffffffffffffffffff166108fc82600501549081150290604051600060405180830381858888f19350505050158015610733573d6000803e3d6000fd5b505b5050565b6000604051905090565b600080fd5b600080fd5b6000819050919050565b6107608161074d565b811461076b57600080fd5b50565b60008135905061077d81610757565b92915050565b60006020828403121561079957610798610743565b5b60006107a78482850161076e565b91505092915050565b600073ffffffffffffffffffffffffffffffffffffffff82169050919050565b60006107db826107b0565b9050919050565b6107eb816107d0565b82525050565b600081519050919050565b600082825260208201905092915050565b60005b8381101561082b578082015181840152602081019050610810565b60008484015250505050565b6000601f19601f8301169050919050565b6000610853826107f1565b61085d81856107fc565b935061086d81856020860161080d565b61087681610837565b840191505092915050565b61088a8161074d565b82525050565b60008115159050919050565b6108a581610890565b82525050565b600060e0820190506108c0600083018a6107e2565b81810360208301526108d28189610848565b905081810360408301526108e68188610848565b90506108f56060830187610881565b81810360808301526109078186610848565b905061091660a0830185610881565b61092360c083018461089c565b98975050505050505050565b60006020820190506109446000830184610881565b92915050565b600080fd5b600080fd5b7f4e487b7100000000000000000000000000000000000000000000000000000000600052604160045260246000fd5b61098c82610837565b810181811067ffffffffffffffff821117156109ab576109aa610954565b5b80604052505050565b60006109be610739565b90506109ca8282610983565b919050565b600067ffffffffffffffff8211156109ea576109e9610954565b5b6109f382610837565b9050602081019050919050565b82818337600083830152505050565b6000610a22610a1d846109cf565b6109b4565b905082815260208101848484011115610a3e57610a3d61094f565b5b610a49848285610a00565b509392505050565b600082601f830112610a6657610a6561094a565b5b8135610a76848260208601610a0f565b91505092915050565b60008060008060808587031215610a9957610a98610743565b5b600085013567ffffffffffffffff811115610ab757610ab6610748565b5b610ac387828801610a51565b945050602085013567ffffffffffffffff811115610ae457610ae3610748565b5b610af087828801610a51565b9350506040610b018782880161076e565b925050606085013567ffffffffffffffff811115610b2257610b21610748565b5b610b2e87828801610a51565b91505092959194509250565b7f4e487b7100000000000000000000000000000000000000000000000000000000600052602260045260246000fd5b60006002820490506001821680610b8157607f821691505b602082108103610b9457610b93610b3a565b5b50919050565b7f43616d706169676e20616c726561647920636f6d706c6574652e000000000000600082015250565b6000610bd0601a836107fc565b9150610bdb82610b9a565b602082019050919050565b60006020820190508181036000830152610bff81610bc3565b9050919050565b7f4e6f20636f6e747269627574696f6e7320666f756e642e000000000000000000600082015250565b6000610c3c6017836107fc565b9150610c4782610c06565b602082019050919050565b60006020820190508181036000830152610c6b81610c2f565b9050919050565b7f4e487b7100000000000000000000000000000000000000000000000000000000600052601160045260246000fd5b6000610cac8261074d565b9150610cb78361074d565b9250828203905081811115610ccf57610cce610c72565b5b92915050565b60008190508160005260206000209050919050565b60006020601f8301049050919050565b600082821b905092915050565b600060088302610d377fffffffffffffffffffffffffffffffffffffffffffffffffffffffffffffffff82610cfa565b610d418683610cfa565b95508019841693508086168417925050509392505050565b6000819050919050565b6000610d7e610d79610d748461074d565b610d59565b61074d565b9050919050565b6000819050919050565b610d9883610d63565b610dac610da482610d85565b848454610d07565b825550505050565b600090565b610dc1610db4565b610dcc818484610d8f565b505050565b5b81811015610df057610de5600082610db9565b600181019050610dd2565b5050565b601f821115610e3557610e0681610cd5565b610e0f84610cea565b81016020851015610e1e578190505b610e32610e2a85610cea565b830182610dd1565b50505b505050565b600082821c905092915050565b6000610e5860001984600802610e3a565b1980831691505092915050565b6000610e718383610e47565b9150826002028217905092915050565b610e8a826107f1565b67ffffffffffffffff811115610ea357610ea2610954565b5b610ead8254610b69565b610eb8828285610df4565b600060209050601f831160018114610eeb5760008415610ed9578287015190505b610ee38582610e65565b865550610f4b565b601f198416610ef986610cd5565b60005b82811015610f2157848901518255600182019150602085019450602081019050610efc565b86831015610f3e5784890151610f3a601f891682610e47565b8355505b6001600288020188555050505b505050505050565b6000610f5e8261074d565b91507fffffffffffffffffffffffffffffffffffffffffffffffffffffffffffffffff8203610f9057610f8f610c72565b5b600182019050919050565b6000610fa68261074d565b9150610fb18361074d565b9250828201905080821115610fc957610fc8610c72565b5b9291505056fea264697066735822122042ced12010d0760917d019d3af988678f4b4f0ae5c6eaea2956bf55454b6f9f864736f6c63430008110033",
  "immutableReferences": {},
  "source": "// SPDX-License-Identifier: MIT\r\npragma solidity ^0.8.0;\r\n\r\ncontract Crowdfunding {\r\n    struct Campaign {\r\n        address payable creator;\r\n        string title;\r\n        string description;\r\n        uint goal;\r\n        string image;\r\n        uint raised;\r\n        mapping(address => uint) contributions;\r\n        bool complete;\r\n    }\r\n    \r\n    uint public numCampaigns;\r\n\r\n    mapping (uint => Campaign) public campaigns;\r\n    \r\n    function createCampaign(string memory _title, string memory _description, uint _goal, string memory _image) public {\r\n        Campaign storage c = campaigns[numCampaigns];\r\n\r\n        c.creator = payable(msg.sender);\r\n        c.title = _title;\r\n        c.description = _description;\r\n        c.goal = _goal;\r\n        c.image = _image;\r\n        c.raised = 0 ;\r\n        c.complete = false;\r\n\r\n        numCampaigns++;\r\n        }\r\n    \r\n    function contribute(uint _campaignIndex) public payable {\r\n        Campaign storage campaign = campaigns[_campaignIndex];\r\n        require(!campaign.complete, \"Campaign already complete.\");\r\n        campaign.contributions[msg.sender] += msg.value;\r\n        campaign.raised += msg.value;\r\n        if (campaign.raised >= campaign.goal) {\r\n            campaign.complete = true;\r\n            campaign.creator.transfer(campaign.raised);\r\n        }\r\n    }\r\n    \r\n    function withdraw(uint _campaignIndex) public {\r\n        Campaign storage campaign = campaigns[_campaignIndex];\r\n        require(campaign.complete == false, \"Campaign already complete.\");\r\n        uint amount = campaign.contributions[msg.sender];\r\n        require(amount > 0, \"No contributions found.\");\r\n        campaign.contributions[msg.sender] = 0;\r\n        campaign.raised -= amount;\r\n        payable(msg.sender).transfer(amount);\r\n    }\r\n}",
  "sourcePath": "C:\\Users\\roile\\OneDrive - Azrieli - Jerusalem College of Engineering\\\\Git Codes\\crowdfunding\\contracts\\crowdfunding.sol",
  "compiler": {
    "name": "solc",
    "version": "0.8.17+commit.8df45f5f.Emscripten.clang"
  },
  "schemaVersion": "3.4.11",
  "updatedAt": "2023-03-01T08:35:27.292Z",
  "networkType": "ethereum",
  "devdoc": {
    "kind": "dev",
    "methods": {},
    "version": 1
  },
  "userdoc": {
    "kind": "user",
    "methods": {},
    "version": 1
  }
}